{
  "contractName": "Kittycontract",
  "abi": [
    {
      "inputs": [],
      "payable": false,
      "stateMutability": "nonpayable",
      "type": "constructor"
    },
    {
      "anonymous": false,
      "inputs": [
        {
          "indexed": true,
          "internalType": "address",
          "name": "owner",
          "type": "address"
        },
        {
          "indexed": true,
          "internalType": "address",
          "name": "approved",
          "type": "address"
        },
        {
          "indexed": true,
          "internalType": "uint256",
          "name": "tokenId",
          "type": "uint256"
        }
      ],
      "name": "Approval",
      "type": "event"
    },
    {
      "anonymous": false,
      "inputs": [
        {
          "indexed": true,
          "internalType": "address",
          "name": "owner",
          "type": "address"
        },
        {
          "indexed": true,
          "internalType": "address",
          "name": "operator",
          "type": "address"
        },
        {
          "indexed": false,
          "internalType": "bool",
          "name": "approved",
          "type": "bool"
        }
      ],
      "name": "ApprovalForAll",
      "type": "event"
    },
    {
      "anonymous": false,
      "inputs": [
        {
          "indexed": false,
          "internalType": "address",
          "name": "owner",
          "type": "address"
        },
        {
          "indexed": false,
          "internalType": "uint256",
          "name": "kittenId",
          "type": "uint256"
        },
        {
          "indexed": false,
          "internalType": "uint256",
          "name": "mumId",
          "type": "uint256"
        },
        {
          "indexed": false,
          "internalType": "uint256",
          "name": "dadId",
          "type": "uint256"
        },
        {
          "indexed": false,
          "internalType": "uint256",
          "name": "genes",
          "type": "uint256"
        }
      ],
      "name": "Birth",
      "type": "event"
    },
    {
      "anonymous": false,
      "inputs": [
        {
          "indexed": true,
          "internalType": "address",
          "name": "from",
          "type": "address"
        },
        {
          "indexed": true,
          "internalType": "address",
          "name": "to",
          "type": "address"
        },
        {
          "indexed": true,
          "internalType": "uint256",
          "name": "tokenId",
          "type": "uint256"
        }
      ],
      "name": "Transfer",
      "type": "event"
    },
    {
      "constant": true,
      "inputs": [],
      "name": "CREATION_LIMIT_GEN0",
      "outputs": [
        {
          "internalType": "uint256",
          "name": "",
          "type": "uint256"
        }
      ],
      "payable": false,
      "stateMutability": "view",
      "type": "function"
    },
    {
      "constant": true,
      "inputs": [],
      "name": "_name",
      "outputs": [
        {
          "internalType": "string",
          "name": "",
          "type": "string"
        }
      ],
      "payable": false,
      "stateMutability": "view",
      "type": "function"
    },
    {
      "constant": true,
      "inputs": [],
      "name": "_symbol",
      "outputs": [
        {
          "internalType": "string",
          "name": "",
          "type": "string"
        }
      ],
      "payable": false,
      "stateMutability": "view",
      "type": "function"
    },
    {
      "constant": true,
      "inputs": [
        {
          "internalType": "uint256",
          "name": "",
          "type": "uint256"
        }
      ],
      "name": "kittyIndexToApproved",
      "outputs": [
        {
          "internalType": "address",
          "name": "",
          "type": "address"
        }
      ],
      "payable": false,
      "stateMutability": "view",
      "type": "function"
    },
    {
      "constant": true,
      "inputs": [],
      "name": "owner",
      "outputs": [
        {
          "internalType": "address",
          "name": "",
          "type": "address"
        }
      ],
      "payable": false,
      "stateMutability": "view",
      "type": "function"
    },
    {
      "constant": false,
      "inputs": [
        {
          "internalType": "uint256",
          "name": "dadId",
          "type": "uint256"
        },
        {
          "internalType": "uint256",
          "name": "mumId",
          "type": "uint256"
        }
      ],
      "name": "breed",
      "outputs": [
        {
          "internalType": "uint256",
          "name": "",
          "type": "uint256"
        }
      ],
      "payable": false,
      "stateMutability": "nonpayable",
      "type": "function"
    },
    {
      "constant": true,
      "inputs": [
        {
          "internalType": "bytes4",
          "name": "_interfaceId",
          "type": "bytes4"
        }
      ],
      "name": "supportsInterface",
      "outputs": [
        {
          "internalType": "bool",
          "name": "",
          "type": "bool"
        }
      ],
      "payable": false,
      "stateMutability": "view",
      "type": "function"
    },
    {
      "constant": false,
      "inputs": [
        {
          "internalType": "uint256",
          "name": "genes",
          "type": "uint256"
        }
      ],
      "name": "createKittyGen0",
      "outputs": [
        {
          "internalType": "uint256",
          "name": "",
          "type": "uint256"
        }
      ],
      "payable": false,
      "stateMutability": "nonpayable",
      "type": "function"
    },
    {
      "constant": true,
      "inputs": [
        {
          "internalType": "uint256",
          "name": "tokenId",
          "type": "uint256"
        }
      ],
      "name": "getKitty",
      "outputs": [
        {
          "internalType": "uint256",
          "name": "genes",
          "type": "uint256"
        },
        {
          "internalType": "uint256",
          "name": "birthTime",
          "type": "uint256"
        },
        {
          "internalType": "uint256",
          "name": "mumId",
          "type": "uint256"
        },
        {
          "internalType": "uint256",
          "name": "dadId",
          "type": "uint256"
        },
        {
          "internalType": "uint256",
          "name": "generation",
          "type": "uint256"
        }
      ],
      "payable": false,
      "stateMutability": "view",
      "type": "function"
    },
    {
      "constant": true,
      "inputs": [
        {
          "internalType": "address",
          "name": "owner",
          "type": "address"
        }
      ],
      "name": "balanceOf",
      "outputs": [
        {
          "internalType": "uint256",
          "name": "balance",
          "type": "uint256"
        }
      ],
      "payable": false,
      "stateMutability": "view",
      "type": "function"
    },
    {
      "constant": true,
      "inputs": [],
      "name": "totalSupply",
      "outputs": [
        {
          "internalType": "uint256",
          "name": "total",
          "type": "uint256"
        }
      ],
      "payable": false,
      "stateMutability": "view",
      "type": "function"
    },
    {
      "constant": true,
      "inputs": [],
      "name": "name",
      "outputs": [
        {
          "internalType": "string",
          "name": "tokenName",
          "type": "string"
        }
      ],
      "payable": false,
      "stateMutability": "view",
      "type": "function"
    },
    {
      "constant": true,
      "inputs": [],
      "name": "symbol",
      "outputs": [
        {
          "internalType": "string",
          "name": "tokenSymbol",
          "type": "string"
        }
      ],
      "payable": false,
      "stateMutability": "view",
      "type": "function"
    },
    {
      "constant": true,
      "inputs": [
        {
          "internalType": "uint256",
          "name": "tokenId",
          "type": "uint256"
        }
      ],
      "name": "ownerOf",
      "outputs": [
        {
          "internalType": "address",
          "name": "",
          "type": "address"
        }
      ],
      "payable": false,
      "stateMutability": "view",
      "type": "function"
    },
    {
      "constant": false,
      "inputs": [
        {
          "internalType": "address",
          "name": "to",
          "type": "address"
        },
        {
          "internalType": "uint256",
          "name": "tokenId",
          "type": "uint256"
        }
      ],
      "name": "transfer",
      "outputs": [],
      "payable": false,
      "stateMutability": "nonpayable",
      "type": "function"
    },
    {
      "constant": false,
      "inputs": [
        {
          "internalType": "address",
          "name": "_approved",
          "type": "address"
        },
        {
          "internalType": "uint256",
          "name": "_tokenId",
          "type": "uint256"
        }
      ],
      "name": "approve",
      "outputs": [],
      "payable": false,
      "stateMutability": "nonpayable",
      "type": "function"
    },
    {
      "constant": false,
      "inputs": [
        {
          "internalType": "address",
          "name": "_operator",
          "type": "address"
        },
        {
          "internalType": "bool",
          "name": "_approved",
          "type": "bool"
        }
      ],
      "name": "setApprovalForAll",
      "outputs": [],
      "payable": false,
      "stateMutability": "nonpayable",
      "type": "function"
    },
    {
      "constant": true,
      "inputs": [
        {
          "internalType": "uint256",
          "name": "_tokenId",
          "type": "uint256"
        }
      ],
      "name": "getApproved",
      "outputs": [
        {
          "internalType": "address",
          "name": "",
          "type": "address"
        }
      ],
      "payable": false,
      "stateMutability": "view",
      "type": "function"
    },
    {
      "constant": true,
      "inputs": [
        {
          "internalType": "address",
          "name": "_owner",
          "type": "address"
        },
        {
          "internalType": "address",
          "name": "_operator",
          "type": "address"
        }
      ],
      "name": "isApprovedForAll",
      "outputs": [
        {
          "internalType": "bool",
          "name": "",
          "type": "bool"
        }
      ],
      "payable": false,
      "stateMutability": "view",
      "type": "function"
    },
    {
      "constant": false,
      "inputs": [
        {
          "internalType": "address",
          "name": "_from",
          "type": "address"
        },
        {
          "internalType": "address",
          "name": "_to",
          "type": "address"
        },
        {
          "internalType": "uint256",
          "name": "_tokenId",
          "type": "uint256"
        }
      ],
      "name": "transferFrom",
      "outputs": [],
      "payable": false,
      "stateMutability": "nonpayable",
      "type": "function"
    },
    {
      "constant": false,
      "inputs": [
        {
          "internalType": "address",
          "name": "_from",
          "type": "address"
        },
        {
          "internalType": "address",
          "name": "_to",
          "type": "address"
        },
        {
          "internalType": "uint256",
          "name": "_tokenId",
          "type": "uint256"
        }
      ],
      "name": "safeTransferFrom",
      "outputs": [],
      "payable": false,
      "stateMutability": "nonpayable",
      "type": "function"
    },
    {
      "constant": false,
      "inputs": [
        {
          "internalType": "address",
          "name": "_from",
          "type": "address"
        },
        {
          "internalType": "address",
          "name": "_to",
          "type": "address"
        },
        {
          "internalType": "uint256",
          "name": "_tokenId",
          "type": "uint256"
        },
        {
          "internalType": "bytes",
          "name": "data",
          "type": "bytes"
        }
      ],
      "name": "safeTransferFrom",
      "outputs": [],
      "payable": false,
      "stateMutability": "nonpayable",
      "type": "function"
    }
  ],
  "bytecode": "0x608060405234801561001057600080fd5b50336000806101000a81548173ffffffffffffffffffffffffffffffffffffffff021916908373ffffffffffffffffffffffffffffffffffffffff160217905550611d6b806100606000396000f3fe608060405234801561001057600080fd5b50600436106101425760003560e01c806395d89b41116100b8578063b88d4fde1161007c578063b88d4fde14610725578063d28d8852146107e8578063d5a776ca1461086b578063d9ecad7b146108ad578063e985e9c5146108f9578063e98b7f4d1461097557610142565b806395d89b4114610563578063a22cb465146105e6578063a9059cbb14610636578063b09f126614610684578063b48343301461070757610142565b806323b872dd1161010a57806323b872dd1461030957806342842e0e14610377578063481af3d3146103e55780636352211e1461045357806370a08231146104c15780638da5cb5b1461051957610142565b806301ffc9a71461014757806306fdde03146101ac578063081812fc1461022f578063095ea7b31461029d57806318160ddd146102eb575b600080fd5b6101926004803603602081101561015d57600080fd5b8101908080357bffffffffffffffffffffffffffffffffffffffffffffffffffffffff191690602001909291905050506109d3565b604051808215151515815260200191505060405180910390f35b6101b4610a73565b6040518080602001828103825283818151815260200191508051906020019080838360005b838110156101f45780820151818401526020810190506101d9565b50505050905090810190601f1680156102215780820380516001836020036101000a031916815260200191505b509250505060405180910390f35b61025b6004803603602081101561024557600080fd5b8101908080359060200190929190505050610ab0565b604051808273ffffffffffffffffffffffffffffffffffffffff1673ffffffffffffffffffffffffffffffffffffffff16815260200191505060405180910390f35b6102e9600480360360408110156102b357600080fd5b81019080803573ffffffffffffffffffffffffffffffffffffffff16906020019092919080359060200190929190505050610afe565b005b6102f3610c3e565b6040518082815260200191505060405180910390f35b6103756004803603606081101561031f57600080fd5b81019080803573ffffffffffffffffffffffffffffffffffffffff169060200190929190803573ffffffffffffffffffffffffffffffffffffffff16906020019092919080359060200190929190505050610c4b565b005b6103e36004803603606081101561038d57600080fd5b81019080803573ffffffffffffffffffffffffffffffffffffffff169060200190929190803573ffffffffffffffffffffffffffffffffffffffff16906020019092919080359060200190929190505050610c68565b005b610411600480360360208110156103fb57600080fd5b8101908080359060200190929190505050610d54565b604051808273ffffffffffffffffffffffffffffffffffffffff1673ffffffffffffffffffffffffffffffffffffffff16815260200191505060405180910390f35b61047f6004803603602081101561046957600080fd5b8101908080359060200190929190505050610d87565b604051808273ffffffffffffffffffffffffffffffffffffffff1673ffffffffffffffffffffffffffffffffffffffff16815260200191505060405180910390f35b610503600480360360208110156104d757600080fd5b81019080803573ffffffffffffffffffffffffffffffffffffffff169060200190929190505050610e30565b6040518082815260200191505060405180910390f35b610521610e79565b604051808273ffffffffffffffffffffffffffffffffffffffff1673ffffffffffffffffffffffffffffffffffffffff16815260200191505060405180910390f35b61056b610e9e565b6040518080602001828103825283818151815260200191508051906020019080838360005b838110156105ab578082015181840152602081019050610590565b50505050905090810190601f1680156105d85780820380516001836020036101000a031916815260200191505b509250505060405180910390f35b610634600480360360408110156105fc57600080fd5b81019080803573ffffffffffffffffffffffffffffffffffffffff169060200190929190803515159060200190929190505050610edb565b005b6106826004803603604081101561064c57600080fd5b81019080803573ffffffffffffffffffffffffffffffffffffffff16906020019092919080359060200190929190505050611015565b005b61068c6110aa565b6040518080602001828103825283818151815260200191508051906020019080838360005b838110156106cc5780820151818401526020810190506106b1565b50505050905090810190601f1680156106f95780820380516001836020036101000a031916815260200191505b509250505060405180910390f35b61070f6110e3565b6040518082815260200191505060405180910390f35b6107e66004803603608081101561073b57600080fd5b81019080803573ffffffffffffffffffffffffffffffffffffffff169060200190929190803573ffffffffffffffffffffffffffffffffffffffff16906020019092919080359060200190929190803590602001906401000000008111156107a257600080fd5b8201836020820111156107b457600080fd5b803590602001918460018302840111640100000000831117156107d657600080fd5b90919293919293905050506110e8565b005b6107f061114c565b6040518080602001828103825283818151815260200191508051906020019080838360005b83811015610830578082015181840152602081019050610815565b50505050905090810190601f16801561085d5780820380516001836020036101000a031916815260200191505b509250505060405180910390f35b6108976004803603602081101561088157600080fd5b8101908080359060200190929190505050611185565b6040518082815260200191505060405180910390f35b6108e3600480360360408110156108c357600080fd5b810190808035906020019092919080359060200190929190505050611280565b6040518082815260200191505060405180910390f35b61095b6004803603604081101561090f57600080fd5b81019080803573ffffffffffffffffffffffffffffffffffffffff169060200190929190803573ffffffffffffffffffffffffffffffffffffffff16906020019092919050505061138e565b604051808215151515815260200191505060405180910390f35b6109a16004803603602081101561098b57600080fd5b8101908080359060200190929190505050611422565b604051808681526020018581526020018481526020018381526020018281526020019550505050505060405180910390f35b60006380ac58cd60e01b7bffffffffffffffffffffffffffffffffffffffffffffffffffffffff1916827bffffffffffffffffffffffffffffffffffffffffffffffffffffffff19161480610a6c57506301ffc9a760e01b7bffffffffffffffffffffffffffffffffffffffffffffffffffffffff1916827bffffffffffffffffffffffffffffffffffffffffffffffffffffffff1916145b9050919050565b60606040518060400160405280600e81526020017f456d6d6574742d4b697474696573000000000000000000000000000000000000815250905090565b60006001805490508210610ac357600080fd5b6004600083815260200190815260200160002060009054906101000a900473ffffffffffffffffffffffffffffffffffffffff169050919050565b610b0833826114d1565b80610bcc5750600560006002600084815260200190815260200160002060009054906101000a900473ffffffffffffffffffffffffffffffffffffffff1673ffffffffffffffffffffffffffffffffffffffff1673ffffffffffffffffffffffffffffffffffffffff16815260200190815260200160002060003373ffffffffffffffffffffffffffffffffffffffff1673ffffffffffffffffffffffffffffffffffffffff16815260200190815260200160002060009054906101000a900460ff165b610bd557600080fd5b610bdf8183611544565b808273ffffffffffffffffffffffffffffffffffffffff163373ffffffffffffffffffffffffffffffffffffffff167f8c5be1e5ebec7d5bd14f71427d1e84f3dd0314c0f7b2291e5b200ac8c7c3b92560405160405180910390a45050565b6000600180549050905090565b610c573384848461159a565b50610c638383836116b3565b505050565b3073ffffffffffffffffffffffffffffffffffffffff1663b88d4fde8484846040518463ffffffff1660e01b8152600401808473ffffffffffffffffffffffffffffffffffffffff1673ffffffffffffffffffffffffffffffffffffffff1681526020018373ffffffffffffffffffffffffffffffffffffffff1673ffffffffffffffffffffffffffffffffffffffff16815260200182815260200180602001828103825260008152602001602001945050505050600060405180830381600087803b158015610d3757600080fd5b505af1158015610d4b573d6000803e3d6000fd5b50505050505050565b60046020528060005260406000206000915054906101000a900473ffffffffffffffffffffffffffffffffffffffff1681565b60008073ffffffffffffffffffffffffffffffffffffffff166002600084815260200190815260200160002060009054906101000a900473ffffffffffffffffffffffffffffffffffffffff1673ffffffffffffffffffffffffffffffffffffffff161415610df557600080fd5b6002600083815260200190815260200160002060009054906101000a900473ffffffffffffffffffffffffffffffffffffffff169050919050565b6000600360008373ffffffffffffffffffffffffffffffffffffffff1673ffffffffffffffffffffffffffffffffffffffff168152602001908152602001600020549050919050565b6000809054906101000a900473ffffffffffffffffffffffffffffffffffffffff1681565b60606040518060400160405280600281526020017f454b000000000000000000000000000000000000000000000000000000000000815250905090565b3373ffffffffffffffffffffffffffffffffffffffff168273ffffffffffffffffffffffffffffffffffffffff161415610f1457600080fd5b80600560003373ffffffffffffffffffffffffffffffffffffffff1673ffffffffffffffffffffffffffffffffffffffff16815260200190815260200160002060008473ffffffffffffffffffffffffffffffffffffffff1673ffffffffffffffffffffffffffffffffffffffff16815260200190815260200160002060006101000a81548160ff0219169083151502179055508173ffffffffffffffffffffffffffffffffffffffff163373ffffffffffffffffffffffffffffffffffffffff167f17307eab39ab6107e8899845ad3d59bd9653f200f220920489ca2b5937696c3183604051808215151515815260200191505060405180910390a35050565b600073ffffffffffffffffffffffffffffffffffffffff168273ffffffffffffffffffffffffffffffffffffffff16141561104f57600080fd5b3073ffffffffffffffffffffffffffffffffffffffff168273ffffffffffffffffffffffffffffffffffffffff16141561108857600080fd5b61109233826114d1565b61109b57600080fd5b6110a63383836116b3565b5050565b6040518060400160405280600281526020017f454b00000000000000000000000000000000000000000000000000000000000081525081565b600a81565b6110f43386868661159a565b5061114585858585858080601f016020809104026020016040519081016040528093929190818152602001838380828437600081840152601f19601f8201169050808301925050505050505061186f565b5050505050565b6040518060400160405280600e81526020017f456d6d6574742d4b69747469657300000000000000000000000000000000000081525081565b60008060009054906101000a900473ffffffffffffffffffffffffffffffffffffffff1673ffffffffffffffffffffffffffffffffffffffff163373ffffffffffffffffffffffffffffffffffffffff1614611249576040517f08c379a00000000000000000000000000000000000000000000000000000000081526004018080602001828103825260158152602001807f596f7520617265206e6f7420746865206f776e6572000000000000000000000081525060200191505060405180910390fd5b600a6006541061125857600080fd5b60066000815480929190600101919050555061127960008060008533611895565b9050919050565b600061128c33846114d1565b801561129e575061129d33836114d1565b5b6112f3576040517f08c379a0000000000000000000000000000000000000000000000000000000008152600401808060200182810382526021815260200180611d166021913960400191505060405180910390fd5b6000806112ff85611422565b9450505050915060008061131286611422565b9450505050915060006113258584611a5f565b905060008090508285101561134c576001830190506002818161134457fe5b049050611374565b8285111561136c576001850190506002818161136457fe5b049050611373565b6001830190505b5b611381888a838533611895565b5050505050505092915050565b6000600560008473ffffffffffffffffffffffffffffffffffffffff1673ffffffffffffffffffffffffffffffffffffffff16815260200190815260200160002060008373ffffffffffffffffffffffffffffffffffffffff1673ffffffffffffffffffffffffffffffffffffffff16815260200190815260200160002060009054906101000a900460ff16905092915050565b6000806000806000806001878154811061143857fe5b90600052602060002090600202019050806000015495508060010160009054906101000a900467ffffffffffffffff1667ffffffffffffffff1694508060010160089054906101000a900463ffffffff1663ffffffff16935080600101600c9054906101000a900463ffffffff1663ffffffff1692508060010160109054906101000a900461ffff1661ffff1691505091939590929450565b60008273ffffffffffffffffffffffffffffffffffffffff166002600084815260200190815260200160002060009054906101000a900473ffffffffffffffffffffffffffffffffffffffff1673ffffffffffffffffffffffffffffffffffffffff161461153e57600080fd5b92915050565b806004600084815260200190815260200160002060006101000a81548173ffffffffffffffffffffffffffffffffffffffff021916908373ffffffffffffffffffffffffffffffffffffffff1602179055505050565b60008073ffffffffffffffffffffffffffffffffffffffff168373ffffffffffffffffffffffffffffffffffffffff1614156115d557600080fd5b8373ffffffffffffffffffffffffffffffffffffffff168573ffffffffffffffffffffffffffffffffffffffff16148061166d57506002600083815260200190815260200160002060009054906101000a900473ffffffffffffffffffffffffffffffffffffffff1673ffffffffffffffffffffffffffffffffffffffff168573ffffffffffffffffffffffffffffffffffffffff16145b8061167e575061167d848661138e565b5b61168757600080fd5b61169184836114d1565b61169a57600080fd5b60018054905082106116ab57600080fd5b949350505050565b600360008373ffffffffffffffffffffffffffffffffffffffff1673ffffffffffffffffffffffffffffffffffffffff16815260200190815260200160002060008154809291906001019190505550816002600083815260200190815260200160002060006101000a81548173ffffffffffffffffffffffffffffffffffffffff021916908373ffffffffffffffffffffffffffffffffffffffff160217905550600073ffffffffffffffffffffffffffffffffffffffff168373ffffffffffffffffffffffffffffffffffffffff161461180f57600360008473ffffffffffffffffffffffffffffffffffffffff1673ffffffffffffffffffffffffffffffffffffffff16815260200190815260200160002060008154809291906001900391905055506004600082815260200190815260200160002060006101000a81549073ffffffffffffffffffffffffffffffffffffffff02191690555b808273ffffffffffffffffffffffffffffffffffffffff168473ffffffffffffffffffffffffffffffffffffffff167fddf252ad1be2c89b69c2b068fc378daa952ba7f163c4a11628f55a4df523b3ef60405160405180910390a4505050565b61187b84848484611aa0565b61188457600080fd5b61188f8484846116b3565b50505050565b600061189f611c9d565b6040518060a001604052808581526020014267ffffffffffffffff1681526020018863ffffffff1681526020018763ffffffff1681526020018661ffff168152509050600060018083908060018154018082558091505090600182039060005260206000209060020201600090919290919091506000820151816000015560208201518160010160006101000a81548167ffffffffffffffff021916908367ffffffffffffffff16021790555060408201518160010160086101000a81548163ffffffff021916908363ffffffff160217905550606082015181600101600c6101000a81548163ffffffff021916908363ffffffff16021790555060808201518160010160106101000a81548161ffff021916908361ffff16021790555050500390506119ce600085836116b3565b7f0a5311bd2a6608f08a180df2ee7c5946819a649b204b554bb8e39825b2c50ad584828a8a89604051808673ffffffffffffffffffffffffffffffffffffffff1673ffffffffffffffffffffffffffffffffffffffff1681526020018581526020018481526020018381526020018281526020019550505050505060405180910390a1809250505095945050505050565b6000806305f5e1008481611a6f57fe5b04905060006305f5e1008481611a8157fe5b06905060006305f5e10083029050818101905080935050505092915050565b6000611aab84611c84565b611ab85760019050611c7c565b60008473ffffffffffffffffffffffffffffffffffffffff1663150b7a02338887876040518563ffffffff1660e01b8152600401808573ffffffffffffffffffffffffffffffffffffffff1673ffffffffffffffffffffffffffffffffffffffff1681526020018473ffffffffffffffffffffffffffffffffffffffff1673ffffffffffffffffffffffffffffffffffffffff16815260200183815260200180602001828103825283818151815260200191508051906020019080838360005b83811015611b93578082015181840152602081019050611b78565b50505050905090810190601f168015611bc05780820380516001836020036101000a031916815260200191505b5095505050505050602060405180830381600087803b158015611be257600080fd5b505af1158015611bf6573d6000803e3d6000fd5b505050506040513d6020811015611c0c57600080fd5b810190808051906020019092919050505090506040518080611ce7602f9139602f01905060405180910390207bffffffffffffffffffffffffffffffffffffffffffffffffffffffff1916817bffffffffffffffffffffffffffffffffffffffffffffffffffffffff1916149150505b949350505050565b600080823b905060008163ffffffff1611915050919050565b6040518060a0016040528060008152602001600067ffffffffffffffff168152602001600063ffffffff168152602001600063ffffffff168152602001600061ffff168152509056fe6f6e455243373231526563656976656428616464726573732c616464726573732c75696e743235362c6279746573295573657220646f65736e7420776974686572206d756d4964206f72206461644964a265627a7a72315820e070a825b25811c32fb50d9b5fcb354983859d685c86d6ba7f87c286418e00be64736f6c63430005100032",
  "source": "pragma solidity ^0.5.12;\n\nimport \"./IERC721.sol\";\nimport \"./Ownable.sol\";\nimport \"./IERC721Receiver.sol\";\n\ncontract Kittycontract is IERC721, Ownable {\n    string public constant _name = \"Emmett-Kitties\";\n    string public constant _symbol = \"EK\";\n    uint256 public constant CREATION_LIMIT_GEN0 = 10; //keep gen0 cats rare!\n\n    bytes4 internal constant MAGIC_ERC721_RECEIVED = bytes4(keccak256(\"onERC721Received(address,address,uint256,bytes)\"));\n\n    bytes4 private constant _INTERFACE_ID_ERC721 = 0x80ac58cd; //xor of all the bytes4(keccack256) of each implemented function of the interface\n    bytes4 private constant _INTERFACE_ID_ERC165 = 0x01ffc9a7; //bytes4(keccack256) of the single supportsInterface function\n\n    event Birth(\n        address owner,\n        uint256 kittenId,\n        uint256 mumId,\n        uint256 dadId,\n        uint256 genes\n    );\n\n    struct Kitty {\n        uint256 genes;\n        uint64 birthTime;\n        uint32 mumId;\n        uint32 dadId;\n        uint16 generation;\n    }\n\n    Kitty[] kitties;\n    mapping(uint256 => address) kittyIndexToOwner;\n    mapping(address => uint256) ownershipTokenCount;\n\n    //approved adddresses for kitty transfer\n    mapping(uint256 => address) public kittyIndexToApproved;\n\n    //mapping of an addresses approvers i.e. check if an operator was approved for a particular token owner\n    mapping(address => mapping(address => bool)) private _operatorApprovals;\n\n    uint256 gen0Counter;\n\n    function breed(uint256 dadId, uint256 mumId) public returns (uint256){\n        //check ownership of parents\n        require(_owns(msg.sender, dadId) && _owns(msg.sender, mumId), \"User doesnt wither mumId or dadId\");\n        \n        (uint256 dadGenes, , , , uint256 dadGeneration) = getKitty(dadId); //save memory by not loading values into vars\n        (uint256 mumGenes, , , , uint256 mumGeneration) = getKitty(mumId); //save memory by not loading values into vars\n        \n        uint256 newGenes = _mixDna(dadGenes, mumGenes);\n        \n        //get generation\n        uint256 kidGen = 0;\n        if(dadGeneration < mumGeneration){\n            kidGen = mumGeneration + 1;\n            kidGen/=2;\n        }else if(dadGeneration > mumGeneration) {\n            kidGen = dadGeneration + 1;\n            kidGen/=2;\n        }else{\n            kidGen = mumGeneration + 1;\n        }\n\n        //create new cat with new props for this sender\n        _createKitty(mumId, dadId, uint32(kidGen), newGenes, msg.sender);\n    }\n\n    constructor() public Ownable() {\n        owner = msg.sender;\n    }\n\n    //ERC165 often appears when contract to contract interaction is needed\n    function supportsInterface(bytes4 _interfaceId) external view returns (bool){\n        return (_interfaceId == _INTERFACE_ID_ERC721 || _interfaceId == _INTERFACE_ID_ERC165);\n    }\n\n    function createKittyGen0(uint256 genes) public onlyOwner returns (uint256) {\n        require(gen0Counter < CREATION_LIMIT_GEN0);\n\n        gen0Counter++;\n\n        //no owner, owned by contract\n        return _createKitty(0, 0, 0, genes, msg.sender);\n    }\n\n    function getKitty(uint256 tokenId)\n        public\n        view\n        returns (\n            uint256 genes,\n            uint256 birthTime,\n            uint256 mumId,\n            uint256 dadId,\n            uint256 generation\n        )\n    {\n        //use apointer to storage instead of making copy\n        Kitty storage kitty = kitties[tokenId];\n\n        genes = kitty.genes;\n        birthTime = uint256(kitty.birthTime);\n        mumId = uint256(kitty.mumId);\n        dadId = uint256(kitty.dadId);\n        generation = uint256(kitty.generation);\n        \n    }\n\n    /**\n        returns id of new Kitty (which is its position in kitties array)\n     */\n    function _createKitty(\n        uint256 mumId,\n        uint256 dadId,\n        uint32 generation,\n        uint256 genes,\n        address owner\n    ) private returns (uint256) {\n        //note easier to pass in uint256 and cast to uint32\n        Kitty memory kitty = Kitty({\n            genes: genes,\n            birthTime: uint64(now),\n            mumId: uint32(mumId),\n            dadId: uint32(dadId),\n            generation: uint16(generation)\n        });\n\n        uint256 newKittenId = kitties.push(kitty) - 1;\n\n        _transfer(address(0), owner, newKittenId);\n\n        emit Birth(owner, newKittenId, mumId, dadId, genes);\n\n        return newKittenId;\n    }\n\n    /**\n     * @dev Returns the number of tokens in ``owner``'s account.\n     */\n    function balanceOf(address owner) external view returns (uint256 balance) {\n        return ownershipTokenCount[owner];\n    }\n\n    /*\n     * @dev Returns the total number of tokens in circulation.\n     */\n    function totalSupply() external view returns (uint256 total) {\n        return kitties.length;\n    }\n\n    /*\n     * @dev Returns the name of the token.\n     */\n    function name() external view returns (string memory tokenName) {\n        return _name;\n    }\n\n    /*\n     * @dev Returns the symbol of the token.\n     */\n    function symbol() external view returns (string memory tokenSymbol) {\n        return _symbol;\n    }\n\n    /**\n     * @dev Returns the owner of the `tokenId` token.\n     *\n     * Requirements:\n     *\n     * - `tokenId` must exist.\n     */\n    function ownerOf(uint256 tokenId) external view returns (address) {\n        require(kittyIndexToOwner[tokenId] != address(0));\n        return kittyIndexToOwner[tokenId];\n    }\n\n    /* @dev Transfers `tokenId` token from `msg.sender` to `to`.\n     *\n     *\n     * Requirements:\n     *\n     * - `to` cannot be the zero address.\n     * - `to` can not be the contract address.\n     * - `tokenId` token must be owned by `msg.sender`.\n     *\n     * Emits a {Transfer} event.\n     */\n    function transfer(address to, uint256 tokenId) external {\n        require(to != address(0));\n        require(to != address(this));\n        require(_owns(msg.sender, tokenId));\n\n        _transfer(msg.sender, to, tokenId);\n    }\n\n    function _transfer(\n        address from,\n        address to,\n        uint256 tokenId\n    ) internal {\n        ownershipTokenCount[to]++;\n        kittyIndexToOwner[tokenId] = to;\n\n        if (from != address(0)) {\n            ownershipTokenCount[from]--;\n            delete kittyIndexToApproved[tokenId]; //if you seel a token you want to delete the current approvals it has or else new owner could be in for a shock !\n        }\n\n        emit Transfer(from, to, tokenId);\n    }\n\n    function _owns(address claimant, uint256 tokenId)\n        internal\n        view\n        returns (bool)\n    {\n        require(kittyIndexToOwner[tokenId] == claimant);\n    }\n\n    function _approve(uint256 _tokenId, address _approved)\n        internal\n    {\n        kittyIndexToApproved[_tokenId] = _approved;\n    }\n\n    function safeTransfer(address _from, address _to, uint256 _tokenId, bytes memory _data) internal{\n        _transfer(_from, _to, _tokenId);\n        require(checkERC721Support(_from, _to, _tokenId, _data));\n    }\n\n\n\n    /// @notice Change or reaffirm the approved address for an NFT\n    /// @dev The zero address indicates there is no approved address.\n    ///  Throws unless `msg.sender` is the current NFT owner, or an authorized\n    ///  operator of the current owner.\n    /// @param _approved The new approved NFT controller\n    /// @param _tokenId The NFT to approve\n    function approve(address _approved, uint256 _tokenId) external{\n        \n        require( _owns(msg.sender, _tokenId) || _operatorApprovals[kittyIndexToOwner[_tokenId]][msg.sender] );\n        \n        _approve(_tokenId, _approved);\n\n        emit Approval(msg.sender, _approved, _tokenId);\n    }\n\n    /// @notice Enable or disable approval for a third party (\"operator\") to manage\n    ///  all of `msg.sender`'s assets\n    /// @dev Emits the ApprovalForAll event. The contract MUST allow\n    ///  multiple operators per owner.\n    /// @param _operator Address to add to the set of authorized operators\n    /// @param _approved True if the operator is approved, false to revoke approval\n    function setApprovalForAll(address _operator, bool _approved) external{\n        \n        require(_operator != msg.sender);\n\n        _operatorApprovals[msg.sender][_operator] = _approved;\n\n        emit ApprovalForAll(msg.sender, _operator, _approved);\n\n    }\n\n    /// @notice Get the approved address for a single NFT\n    /// @dev Throws if `_tokenId` is not a valid NFT.\n    /// @param _tokenId The NFT to find the approved address for\n    /// @return The approved address for this NFT, or the zero address if there is none\n    function getApproved(uint256 _tokenId) external view returns (address){\n\n        require(_tokenId < kitties.length); // simple check for existance\n        return kittyIndexToApproved[_tokenId];\n    }\n\n    /// @notice Query if an address is an authorized operator for another address\n    /// @param _owner The address that owns the NFTs\n    /// @param _operator The address that acts on behalf of the owner\n    /// @return True if `_operator` is an approved operator for `_owner`, false otherwise\n    function isApprovedForAll(address _owner, address _operator) public view returns (bool){\n                \n        return _operatorApprovals[_owner][_operator];\n\n    }\n\n    /// @notice Transfer ownership of an NFT -- THE CALLER IS RESPONSIBLE\n    ///  TO CONFIRM THAT `_to` IS CAPABLE OF RECEIVING NFTS OR ELSE\n    ///  THEY MAY BE PERMANENTLY LOST\n    /// @dev Throws unless `msg.sender` is the current owner, an authorized\n    ///  operator, or the approved address for this NFT. Throws if `_from` is\n    ///  not the current owner. Throws if `_to` is the zero address. Throws if\n    ///  `_tokenId` is not a valid NFT.\n    /// @param _from The current owner of the NFT\n    /// @param _to The new owner\n    /// @param _tokenId The NFT to transfer\n    function transferFrom(address _from, address _to, uint256 _tokenId) external{\n        _isApprovedOrOwner(msg.sender, _from, _to, _tokenId);\n\n        //reuse _trasnfer\n        _transfer(_from, _to, _tokenId);\n    }\n\n    /// @notice Transfers the ownership of an NFT from one address to another address\n    /// @dev This works identically to the other function with an extra data parameter,\n    ///  except this function just sets data to \"\".\n    /// @param _from The current owner of the NFT\n    /// @param _to The new owner\n    /// @param _tokenId The NFT to transfer\n    function safeTransferFrom(address _from, address _to, uint256 _tokenId) external{\n        this.safeTransferFrom( _from,  _to,  _tokenId, \"\");   \n    }\n\n    /// @notice Transfers the ownership of an NFT from one address to another address\n    /// @dev Throws unless `msg.sender` is the current owner, an authorized\n    ///  operator, or the approved address for this NFT. Throws if `_from` is\n    ///  not the current owner. Throws if `_to` is the zero address. Throws if\n    ///  `_tokenId` is not a valid NFT. When transfer is complete, this function\n    ///  checks if `_to` is a smart contract (code size > 0). If so, it calls\n    ///  `onERC721Received` on `_to` and throws if the return value is not\n    ///  `bytes4(keccak256(\"onERC721Received(address,address,uint256,bytes)\"))`.\n    /// @param _from The current owner of the NFT\n    /// @param _to The new owner\n    /// @param _tokenId The NFT to transfer\n    /// @param data Additional data with no specified format, sent in call to `_to`\n    function safeTransferFrom(address _from, address _to, uint256 _tokenId, bytes calldata data) external{\n        \n        _isApprovedOrOwner(msg.sender, _from, _to, _tokenId);\n        \n        _safeTransferFrom( _from,  _to,  _tokenId,  data);    \n    }\n\n    /// @notice Transfers the ownership of an NFT from one address to another address\n    /// @dev This works identically to the other function with an extra data parameter,\n    ///  except this function just sets data to \"\".\n    /// @param _from The current owner of the NFT\n    /// @param _to The new owner\n    /// @param _tokenId The NFT to transfer\n    function _safeTransferFrom(address _from, address _to, uint256 _tokenId, bytes memory _data) internal{\n        require(checkERC721Support(_from, _to, _tokenId, _data));\n        _transfer(_from, _to, _tokenId);\n    }\n\n    function _isApprovedOrOwner(address sender, address _from, address _to, uint256 _tokenId) internal view returns (bool){\n\n        require(_to != address(0));\n        require(sender == _from || sender == kittyIndexToOwner[_tokenId] || isApprovedForAll(_from, sender)); //spender is from or spender is approved for tokenId or spender is operator for from\n        require(_owns(_from, _tokenId));\n        require(_tokenId < kitties.length); // simple check for valid NFT / token exists   \n\n    }\n\n    function checkERC721Support(address _from, address _to, uint256 _tokenId, bytes memory _data) internal returns (bool){\n        \n        if(!isContract(_to)){\n            return true;\n        }\n        \n        //call onERC721Received\n        bytes4 returnData = IERC721Receiver(_to).onERC721Received(msg.sender, _from, _tokenId, _data);\n\n        //check return value\n        return returnData == MAGIC_ERC721_RECEIVED;\n\n    }\n\n    function isContract(address _to) internal view returns (bool){\n        uint32 size;\n\n       //get size of code, If 0 then its not a contract\n        assembly{\n            size := extcodesize(_to) \n        }\n\n        return size > 0;\n    }\n\n    function _mixDna(uint256 dadId, uint256 mumId) internal returns(uint256){\n        uint256 firstHalf = dadId/100000000;\n        uint256 secondHalf = mumId%100000000;\n\n        uint256 newDna = firstHalf * 100000000;\n        newDna = newDna + secondHalf;\n        return newDna;\n\n    }\n}\n",
  "sourcePath": "/Users/Emmett/ivanontech/academy-kitties-template/contracts/Kitty.sol",
  "compiler": {
    "name": "solc",
    "version": "0.5.16+commit.9c3226ce.Emscripten.clang"
  },
  "schemaVersion": "3.4.3",
  "updatedAt": "2021-09-27T14:13:58.173Z",
  "networkType": "ethereum",
  "devdoc": {
    "methods": {
      "approve(address,uint256)": {
        "details": "The zero address indicates there is no approved address.  Throws unless `msg.sender` is the current NFT owner, or an authorized  operator of the current owner.",
        "params": {
          "_approved": "The new approved NFT controller",
          "_tokenId": "The NFT to approve"
        }
      },
      "balanceOf(address)": {
        "details": "Returns the number of tokens in ``owner``'s account."
      },
      "getApproved(uint256)": {
        "details": "Throws if `_tokenId` is not a valid NFT.",
        "params": {
          "_tokenId": "The NFT to find the approved address for"
        },
        "return": "The approved address for this NFT, or the zero address if there is none"
      },
      "isApprovedForAll(address,address)": {
        "params": {
          "_operator": "The address that acts on behalf of the owner",
          "_owner": "The address that owns the NFTs"
        },
        "return": "True if `_operator` is an approved operator for `_owner`, false otherwise"
      },
      "ownerOf(uint256)": {
        "details": "Returns the owner of the `tokenId` token.     * Requirements:     * - `tokenId` must exist."
      },
      "safeTransferFrom(address,address,uint256)": {
        "details": "This works identically to the other function with an extra data parameter,  except this function just sets data to \"\".",
        "params": {
          "_from": "The current owner of the NFT",
          "_to": "The new owner",
          "_tokenId": "The NFT to transfer"
        }
      },
      "safeTransferFrom(address,address,uint256,bytes)": {
        "details": "Throws unless `msg.sender` is the current owner, an authorized  operator, or the approved address for this NFT. Throws if `_from` is  not the current owner. Throws if `_to` is the zero address. Throws if  `_tokenId` is not a valid NFT. When transfer is complete, this function  checks if `_to` is a smart contract (code size > 0). If so, it calls  `onERC721Received` on `_to` and throws if the return value is not  `bytes4(keccak256(\"onERC721Received(address,address,uint256,bytes)\"))`.",
        "params": {
          "_from": "The current owner of the NFT",
          "_to": "The new owner",
          "_tokenId": "The NFT to transfer",
          "data": "Additional data with no specified format, sent in call to `_to`"
        }
      },
      "setApprovalForAll(address,bool)": {
        "details": "Emits the ApprovalForAll event. The contract MUST allow  multiple operators per owner.",
        "params": {
          "_approved": "True if the operator is approved, false to revoke approval",
          "_operator": "Address to add to the set of authorized operators"
        }
      },
      "transferFrom(address,address,uint256)": {
        "details": "Throws unless `msg.sender` is the current owner, an authorized  operator, or the approved address for this NFT. Throws if `_from` is  not the current owner. Throws if `_to` is the zero address. Throws if  `_tokenId` is not a valid NFT.",
        "params": {
          "_from": "The current owner of the NFT",
          "_to": "The new owner",
          "_tokenId": "The NFT to transfer"
        }
      }
    }
  },
  "userdoc": {
    "methods": {
      "approve(address,uint256)": {
        "notice": "Change or reaffirm the approved address for an NFT"
      },
      "getApproved(uint256)": {
        "notice": "Get the approved address for a single NFT"
      },
      "isApprovedForAll(address,address)": {
        "notice": "Query if an address is an authorized operator for another address"
      },
      "safeTransferFrom(address,address,uint256)": {
        "notice": "Transfers the ownership of an NFT from one address to another address"
      },
      "safeTransferFrom(address,address,uint256,bytes)": {
        "notice": "Transfers the ownership of an NFT from one address to another address"
      },
      "setApprovalForAll(address,bool)": {
        "notice": "Enable or disable approval for a third party (\"operator\") to manage  all of `msg.sender`'s assets"
      },
      "transferFrom(address,address,uint256)": {
        "notice": "Transfer ownership of an NFT -- THE CALLER IS RESPONSIBLE  TO CONFIRM THAT `_to` IS CAPABLE OF RECEIVING NFTS OR ELSE  THEY MAY BE PERMANENTLY LOST"
      }
    }
  }
}