{
  "contractName": "Kittycontract",
  "abi": [
    {
      "inputs": [],
      "payable": false,
      "stateMutability": "nonpayable",
      "type": "constructor"
    },
    {
      "anonymous": false,
      "inputs": [
        {
          "indexed": true,
          "internalType": "address",
          "name": "owner",
          "type": "address"
        },
        {
          "indexed": true,
          "internalType": "address",
          "name": "approved",
          "type": "address"
        },
        {
          "indexed": true,
          "internalType": "uint256",
          "name": "tokenId",
          "type": "uint256"
        }
      ],
      "name": "Approval",
      "type": "event"
    },
    {
      "anonymous": false,
      "inputs": [
        {
          "indexed": false,
          "internalType": "address",
          "name": "owner",
          "type": "address"
        },
        {
          "indexed": false,
          "internalType": "uint256",
          "name": "kittenId",
          "type": "uint256"
        },
        {
          "indexed": false,
          "internalType": "uint256",
          "name": "mumId",
          "type": "uint256"
        },
        {
          "indexed": false,
          "internalType": "uint256",
          "name": "dadId",
          "type": "uint256"
        },
        {
          "indexed": false,
          "internalType": "uint256",
          "name": "genes",
          "type": "uint256"
        }
      ],
      "name": "Birth",
      "type": "event"
    },
    {
      "anonymous": false,
      "inputs": [
        {
          "indexed": true,
          "internalType": "address",
          "name": "from",
          "type": "address"
        },
        {
          "indexed": true,
          "internalType": "address",
          "name": "to",
          "type": "address"
        },
        {
          "indexed": true,
          "internalType": "uint256",
          "name": "tokenId",
          "type": "uint256"
        }
      ],
      "name": "Transfer",
      "type": "event"
    },
    {
      "constant": true,
      "inputs": [],
      "name": "CREATION_LIMIT_GEN0",
      "outputs": [
        {
          "internalType": "uint256",
          "name": "",
          "type": "uint256"
        }
      ],
      "payable": false,
      "stateMutability": "view",
      "type": "function"
    },
    {
      "constant": true,
      "inputs": [],
      "name": "_name",
      "outputs": [
        {
          "internalType": "string",
          "name": "",
          "type": "string"
        }
      ],
      "payable": false,
      "stateMutability": "view",
      "type": "function"
    },
    {
      "constant": true,
      "inputs": [],
      "name": "_symbol",
      "outputs": [
        {
          "internalType": "string",
          "name": "",
          "type": "string"
        }
      ],
      "payable": false,
      "stateMutability": "view",
      "type": "function"
    },
    {
      "constant": true,
      "inputs": [],
      "name": "owner",
      "outputs": [
        {
          "internalType": "address",
          "name": "",
          "type": "address"
        }
      ],
      "payable": false,
      "stateMutability": "view",
      "type": "function"
    },
    {
      "constant": false,
      "inputs": [
        {
          "internalType": "uint256",
          "name": "genes",
          "type": "uint256"
        }
      ],
      "name": "createKittyGen0",
      "outputs": [
        {
          "internalType": "uint256",
          "name": "",
          "type": "uint256"
        }
      ],
      "payable": false,
      "stateMutability": "nonpayable",
      "type": "function"
    },
    {
      "constant": true,
      "inputs": [
        {
          "internalType": "uint256",
          "name": "tokenId",
          "type": "uint256"
        }
      ],
      "name": "getKitty",
      "outputs": [
        {
          "internalType": "uint256",
          "name": "genes",
          "type": "uint256"
        },
        {
          "internalType": "uint256",
          "name": "birthTime",
          "type": "uint256"
        },
        {
          "internalType": "uint256",
          "name": "mumId",
          "type": "uint256"
        },
        {
          "internalType": "uint256",
          "name": "dadId",
          "type": "uint256"
        },
        {
          "internalType": "uint256",
          "name": "generation",
          "type": "uint256"
        }
      ],
      "payable": false,
      "stateMutability": "view",
      "type": "function"
    },
    {
      "constant": true,
      "inputs": [
        {
          "internalType": "address",
          "name": "owner",
          "type": "address"
        }
      ],
      "name": "balanceOf",
      "outputs": [
        {
          "internalType": "uint256",
          "name": "balance",
          "type": "uint256"
        }
      ],
      "payable": false,
      "stateMutability": "view",
      "type": "function"
    },
    {
      "constant": true,
      "inputs": [],
      "name": "totalSupply",
      "outputs": [
        {
          "internalType": "uint256",
          "name": "total",
          "type": "uint256"
        }
      ],
      "payable": false,
      "stateMutability": "view",
      "type": "function"
    },
    {
      "constant": true,
      "inputs": [],
      "name": "name",
      "outputs": [
        {
          "internalType": "string",
          "name": "tokenName",
          "type": "string"
        }
      ],
      "payable": false,
      "stateMutability": "view",
      "type": "function"
    },
    {
      "constant": true,
      "inputs": [],
      "name": "symbol",
      "outputs": [
        {
          "internalType": "string",
          "name": "tokenSymbol",
          "type": "string"
        }
      ],
      "payable": false,
      "stateMutability": "view",
      "type": "function"
    },
    {
      "constant": true,
      "inputs": [
        {
          "internalType": "uint256",
          "name": "tokenId",
          "type": "uint256"
        }
      ],
      "name": "ownerOf",
      "outputs": [
        {
          "internalType": "address",
          "name": "",
          "type": "address"
        }
      ],
      "payable": false,
      "stateMutability": "view",
      "type": "function"
    },
    {
      "constant": false,
      "inputs": [
        {
          "internalType": "address",
          "name": "to",
          "type": "address"
        },
        {
          "internalType": "uint256",
          "name": "tokenId",
          "type": "uint256"
        }
      ],
      "name": "transfer",
      "outputs": [],
      "payable": false,
      "stateMutability": "nonpayable",
      "type": "function"
    }
  ],
  "bytecode": "0x608060405234801561001057600080fd5b50336000806101000a81548173ffffffffffffffffffffffffffffffffffffffff021916908373ffffffffffffffffffffffffffffffffffffffff160217905550610d94806100606000396000f3fe608060405234801561001057600080fd5b50600436106100b45760003560e01c8063a9059cbb11610071578063a9059cbb146102ed578063b09f12661461033b578063b4834330146103be578063d28d8852146103dc578063d5a776ca1461045f578063e98b7f4d146104a1576100b4565b806306fdde03146100b957806318160ddd1461013c5780636352211e1461015a57806370a08231146101c85780638da5cb5b1461022057806395d89b411461026a575b600080fd5b6100c16104ff565b6040518080602001828103825283818151815260200191508051906020019080838360005b838110156101015780820151818401526020810190506100e6565b50505050905090810190601f16801561012e5780820380516001836020036101000a031916815260200191505b509250505060405180910390f35b61014461053c565b6040518082815260200191505060405180910390f35b6101866004803603602081101561017057600080fd5b8101908080359060200190929190505050610549565b604051808273ffffffffffffffffffffffffffffffffffffffff1673ffffffffffffffffffffffffffffffffffffffff16815260200191505060405180910390f35b61020a600480360360208110156101de57600080fd5b81019080803573ffffffffffffffffffffffffffffffffffffffff1690602001909291905050506105f2565b6040518082815260200191505060405180910390f35b61022861063b565b604051808273ffffffffffffffffffffffffffffffffffffffff1673ffffffffffffffffffffffffffffffffffffffff16815260200191505060405180910390f35b610272610660565b6040518080602001828103825283818151815260200191508051906020019080838360005b838110156102b2578082015181840152602081019050610297565b50505050905090810190601f1680156102df5780820380516001836020036101000a031916815260200191505b509250505060405180910390f35b6103396004803603604081101561030357600080fd5b81019080803573ffffffffffffffffffffffffffffffffffffffff1690602001909291908035906020019092919050505061069d565b005b610343610732565b6040518080602001828103825283818151815260200191508051906020019080838360005b83811015610383578082015181840152602081019050610368565b50505050905090810190601f1680156103b05780820380516001836020036101000a031916815260200191505b509250505060405180910390f35b6103c661076b565b6040518082815260200191505060405180910390f35b6103e4610770565b6040518080602001828103825283818151815260200191508051906020019080838360005b83811015610424578082015181840152602081019050610409565b50505050905090810190601f1680156104515780820380516001836020036101000a031916815260200191505b509250505060405180910390f35b61048b6004803603602081101561047557600080fd5b81019080803590602001909291905050506107a9565b6040518082815260200191505060405180910390f35b6104cd600480360360208110156104b757600080fd5b81019080803590602001909291905050506108a4565b604051808681526020018581526020018481526020018381526020018281526020019550505050505060405180910390f35b60606040518060400160405280600e81526020017f456d6d6574742d4b697474696573000000000000000000000000000000000000815250905090565b6000600180549050905090565b60008073ffffffffffffffffffffffffffffffffffffffff166002600084815260200190815260200160002060009054906101000a900473ffffffffffffffffffffffffffffffffffffffff1673ffffffffffffffffffffffffffffffffffffffff1614156105b757600080fd5b6002600083815260200190815260200160002060009054906101000a900473ffffffffffffffffffffffffffffffffffffffff169050919050565b6000600360008373ffffffffffffffffffffffffffffffffffffffff1673ffffffffffffffffffffffffffffffffffffffff168152602001908152602001600020549050919050565b6000809054906101000a900473ffffffffffffffffffffffffffffffffffffffff1681565b60606040518060400160405280600281526020017f454b000000000000000000000000000000000000000000000000000000000000815250905090565b600073ffffffffffffffffffffffffffffffffffffffff168273ffffffffffffffffffffffffffffffffffffffff1614156106d757600080fd5b3073ffffffffffffffffffffffffffffffffffffffff168273ffffffffffffffffffffffffffffffffffffffff16141561071057600080fd5b61071a3382610953565b61072357600080fd5b61072e3383836109c6565b5050565b6040518060400160405280600281526020017f454b00000000000000000000000000000000000000000000000000000000000081525081565b600a81565b6040518060400160405280600e81526020017f456d6d6574742d4b69747469657300000000000000000000000000000000000081525081565b60008060009054906101000a900473ffffffffffffffffffffffffffffffffffffffff1673ffffffffffffffffffffffffffffffffffffffff163373ffffffffffffffffffffffffffffffffffffffff161461086d576040517f08c379a00000000000000000000000000000000000000000000000000000000081526004018080602001828103825260158152602001807f596f7520617265206e6f7420746865206f776e6572000000000000000000000081525060200191505060405180910390fd5b600a6004541061087c57600080fd5b60046000815480929190600101919050555061089d60008060008533610b4c565b9050919050565b600080600080600080600187815481106108ba57fe5b90600052602060002090600202019050806000015495508060010160009054906101000a900467ffffffffffffffff1667ffffffffffffffff1694508060010160089054906101000a900463ffffffff1663ffffffff16935080600101600c9054906101000a900463ffffffff1663ffffffff1692508060010160109054906101000a900461ffff1661ffff1691505091939590929450565b60008273ffffffffffffffffffffffffffffffffffffffff166002600084815260200190815260200160002060009054906101000a900473ffffffffffffffffffffffffffffffffffffffff1673ffffffffffffffffffffffffffffffffffffffff16146109c057600080fd5b92915050565b600360008373ffffffffffffffffffffffffffffffffffffffff1673ffffffffffffffffffffffffffffffffffffffff16815260200190815260200160002060008154809291906001019190505550816002600083815260200190815260200160002060006101000a81548173ffffffffffffffffffffffffffffffffffffffff021916908373ffffffffffffffffffffffffffffffffffffffff160217905550600073ffffffffffffffffffffffffffffffffffffffff168373ffffffffffffffffffffffffffffffffffffffff1614610aec57600360008473ffffffffffffffffffffffffffffffffffffffff1673ffffffffffffffffffffffffffffffffffffffff16815260200190815260200160002060008154809291906001900391905055505b808273ffffffffffffffffffffffffffffffffffffffff168473ffffffffffffffffffffffffffffffffffffffff167fddf252ad1be2c89b69c2b068fc378daa952ba7f163c4a11628f55a4df523b3ef60405160405180910390a4505050565b6000610b56610d16565b6040518060a001604052808581526020014267ffffffffffffffff1681526020018863ffffffff1681526020018763ffffffff1681526020018661ffff168152509050600060018083908060018154018082558091505090600182039060005260206000209060020201600090919290919091506000820151816000015560208201518160010160006101000a81548167ffffffffffffffff021916908367ffffffffffffffff16021790555060408201518160010160086101000a81548163ffffffff021916908363ffffffff160217905550606082015181600101600c6101000a81548163ffffffff021916908363ffffffff16021790555060808201518160010160106101000a81548161ffff021916908361ffff1602179055505050039050610c85600085836109c6565b7f0a5311bd2a6608f08a180df2ee7c5946819a649b204b554bb8e39825b2c50ad584828a8a89604051808673ffffffffffffffffffffffffffffffffffffffff1673ffffffffffffffffffffffffffffffffffffffff1681526020018581526020018481526020018381526020018281526020019550505050505060405180910390a1809250505095945050505050565b6040518060a0016040528060008152602001600067ffffffffffffffff168152602001600063ffffffff168152602001600063ffffffff168152602001600061ffff168152509056fea265627a7a723158205e5d2e2e0ec7956893f3de2ba7829cef1e86b08f7a98efe3b44e330b81d0a01964736f6c63430005100032",
  "source": "pragma solidity ^0.5.12;\n\nimport \"./IERC721.sol\";\nimport \"./Ownable.sol\";\n\ncontract Kittycontract is IERC721, Ownable {\n    string public constant _name = \"Emmett-Kitties\";\n    string public constant _symbol = \"EK\";\n    uint256 public constant CREATION_LIMIT_GEN0 = 10; //keep gen0 cats rare!\n\n    event Birth(\n        address owner,\n        uint256 kittenId,\n        uint256 mumId,\n        uint256 dadId,\n        uint256 genes\n    );\n\n    struct Kitty {\n        uint256 genes;\n        uint64 birthTime;\n        uint32 mumId;\n        uint32 dadId;\n        uint16 generation;\n    }\n\n    Kitty[] kitties;\n    mapping(uint256 => address) kittyIndexToOwner;\n    mapping(address => uint256) ownershipTokenCount;\n\n    uint256 gen0Counter;\n\n    constructor() public Ownable() {\n        owner = msg.sender;\n    }\n\n    function createKittyGen0(uint256 genes) public onlyOwner returns (uint256) {\n        require(gen0Counter < CREATION_LIMIT_GEN0);\n\n        gen0Counter++;\n\n        //no owner, owned by contract\n        return _createKitty(0, 0, 0, genes, msg.sender);\n    }\n\n    function getKitty(uint256 tokenId)\n        external\n        view\n        returns (\n            uint256 genes,\n            uint256 birthTime,\n            uint256 mumId,\n            uint256 dadId,\n            uint256 generation\n        )\n    {\n        //use apointer to storage instead of making copy\n        Kitty storage kitty = kitties[tokenId];\n\n        genes = kitty.genes;\n        birthTime = uint256(kitty.birthTime);\n        mumId = uint256(kitty.mumId);\n        dadId = uint256(kitty.dadId);\n        generation = uint256(kitty.generation);\n        \n    }\n\n    /**\n        returns id of new Kitty (which is its position in kitties array)\n     */\n    function _createKitty(\n        uint256 mumId,\n        uint256 dadId,\n        uint32 generation,\n        uint256 genes,\n        address owner\n    ) private returns (uint256) {\n        //note easier to pass in uint256 and cast to uint32\n        Kitty memory kitty = Kitty({\n            genes: genes,\n            birthTime: uint64(now),\n            mumId: uint32(mumId),\n            dadId: uint32(dadId),\n            generation: uint16(generation)\n        });\n\n        uint256 newKittenId = kitties.push(kitty) - 1;\n\n        _transfer(address(0), owner, newKittenId);\n\n        emit Birth(owner, newKittenId, mumId, dadId, genes);\n\n        return newKittenId;\n    }\n\n    /**\n     * @dev Returns the number of tokens in ``owner``'s account.\n     */\n    function balanceOf(address owner) external view returns (uint256 balance) {\n        return ownershipTokenCount[owner];\n    }\n\n    /*\n     * @dev Returns the total number of tokens in circulation.\n     */\n    function totalSupply() external view returns (uint256 total) {\n        return kitties.length;\n    }\n\n    /*\n     * @dev Returns the name of the token.\n     */\n    function name() external view returns (string memory tokenName) {\n        return _name;\n    }\n\n    /*\n     * @dev Returns the symbol of the token.\n     */\n    function symbol() external view returns (string memory tokenSymbol) {\n        return _symbol;\n    }\n\n    /**\n     * @dev Returns the owner of the `tokenId` token.\n     *\n     * Requirements:\n     *\n     * - `tokenId` must exist.\n     */\n    function ownerOf(uint256 tokenId) external view returns (address) {\n        require(kittyIndexToOwner[tokenId] != address(0));\n        return kittyIndexToOwner[tokenId];\n    }\n\n    /* @dev Transfers `tokenId` token from `msg.sender` to `to`.\n     *\n     *\n     * Requirements:\n     *\n     * - `to` cannot be the zero address.\n     * - `to` can not be the contract address.\n     * - `tokenId` token must be owned by `msg.sender`.\n     *\n     * Emits a {Transfer} event.\n     */\n    function transfer(address to, uint256 tokenId) external {\n        require(to != address(0));\n        require(to != address(this));\n        require(_owns(msg.sender, tokenId));\n\n        _transfer(msg.sender, to, tokenId);\n    }\n\n    function _transfer(\n        address from,\n        address to,\n        uint256 tokenId\n    ) internal {\n        ownershipTokenCount[to]++;\n        kittyIndexToOwner[tokenId] = to;\n\n        if (from != address(0)) {\n            ownershipTokenCount[from]--;\n        }\n\n        emit Transfer(from, to, tokenId);\n    }\n\n    function _owns(address claimant, uint256 tokenId)\n        internal\n        view\n        returns (bool)\n    {\n        require(kittyIndexToOwner[tokenId] == claimant);\n    }\n}\n",
  "sourcePath": "/Users/Emmett/ivanontech/academy-kitties-template/contracts/Kitty.sol",
  "compiler": {
    "name": "solc",
    "version": "0.5.16+commit.9c3226ce.Emscripten.clang"
  },
  "schemaVersion": "3.4.3",
  "updatedAt": "2021-09-22T15:24:51.756Z",
  "networkType": "ethereum",
  "devdoc": {
    "methods": {
      "balanceOf(address)": {
        "details": "Returns the number of tokens in ``owner``'s account."
      },
      "ownerOf(uint256)": {
        "details": "Returns the owner of the `tokenId` token.     * Requirements:     * - `tokenId` must exist."
      }
    }
  },
  "userdoc": {
    "methods": {}
  }
}