{
  "contractName": "KittyMarketPlace",
  "abi": [
    {
      "inputs": [
        {
          "internalType": "address",
          "name": "_kittyContractAddress",
          "type": "address"
        }
      ],
      "payable": false,
      "stateMutability": "nonpayable",
      "type": "constructor"
    },
    {
      "anonymous": false,
      "inputs": [
        {
          "indexed": false,
          "internalType": "string",
          "name": "TxType",
          "type": "string"
        },
        {
          "indexed": false,
          "internalType": "address",
          "name": "owner",
          "type": "address"
        },
        {
          "indexed": false,
          "internalType": "uint256",
          "name": "tokenId",
          "type": "uint256"
        }
      ],
      "name": "MarketTransaction",
      "type": "event"
    },
    {
      "constant": true,
      "inputs": [],
      "name": "owner",
      "outputs": [
        {
          "internalType": "address",
          "name": "",
          "type": "address"
        }
      ],
      "payable": false,
      "stateMutability": "view",
      "type": "function"
    },
    {
      "constant": false,
      "inputs": [
        {
          "internalType": "address",
          "name": "_kittyContractAddress",
          "type": "address"
        }
      ],
      "name": "setKittyContract",
      "outputs": [],
      "payable": false,
      "stateMutability": "nonpayable",
      "type": "function"
    },
    {
      "constant": true,
      "inputs": [
        {
          "internalType": "uint256",
          "name": "_tokenId",
          "type": "uint256"
        }
      ],
      "name": "getOffer",
      "outputs": [
        {
          "internalType": "address",
          "name": "seller",
          "type": "address"
        },
        {
          "internalType": "uint256",
          "name": "price",
          "type": "uint256"
        },
        {
          "internalType": "uint256",
          "name": "index",
          "type": "uint256"
        },
        {
          "internalType": "uint256",
          "name": "tokenId",
          "type": "uint256"
        },
        {
          "internalType": "bool",
          "name": "active",
          "type": "bool"
        }
      ],
      "payable": false,
      "stateMutability": "view",
      "type": "function"
    },
    {
      "constant": true,
      "inputs": [],
      "name": "getAllTokenOnSale",
      "outputs": [
        {
          "internalType": "uint256[]",
          "name": "listOfOffers",
          "type": "uint256[]"
        }
      ],
      "payable": false,
      "stateMutability": "view",
      "type": "function"
    },
    {
      "constant": false,
      "inputs": [
        {
          "internalType": "uint256",
          "name": "_price",
          "type": "uint256"
        },
        {
          "internalType": "uint256",
          "name": "_tokenId",
          "type": "uint256"
        }
      ],
      "name": "setOffer",
      "outputs": [],
      "payable": false,
      "stateMutability": "nonpayable",
      "type": "function"
    },
    {
      "constant": false,
      "inputs": [
        {
          "internalType": "uint256",
          "name": "_tokenId",
          "type": "uint256"
        }
      ],
      "name": "removeOffer",
      "outputs": [],
      "payable": false,
      "stateMutability": "nonpayable",
      "type": "function"
    },
    {
      "constant": false,
      "inputs": [
        {
          "internalType": "uint256",
          "name": "_tokenId",
          "type": "uint256"
        }
      ],
      "name": "buyKitty",
      "outputs": [],
      "payable": true,
      "stateMutability": "payable",
      "type": "function"
    }
  ],
  "bytecode": "0x608060405234801561001057600080fd5b5060405161145c38038061145c8339818101604052602081101561003357600080fd5b8101908080519060200190929190505050336000806101000a81548173ffffffffffffffffffffffffffffffffffffffff021916908373ffffffffffffffffffffffffffffffffffffffff1602179055506100938161009960201b60201c565b506101d9565b6000809054906101000a900473ffffffffffffffffffffffffffffffffffffffff1673ffffffffffffffffffffffffffffffffffffffff163373ffffffffffffffffffffffffffffffffffffffff161461015b576040517f08c379a00000000000000000000000000000000000000000000000000000000081526004018080602001828103825260158152602001807f596f7520617265206e6f7420746865206f776e6572000000000000000000000081525060200191505060405180910390fd5b600073ffffffffffffffffffffffffffffffffffffffff168173ffffffffffffffffffffffffffffffffffffffff16141561019557600080fd5b80600160006101000a81548173ffffffffffffffffffffffffffffffffffffffff021916908373ffffffffffffffffffffffffffffffffffffffff16021790555050565b611274806101e86000396000f3fe6080604052600436106100705760003560e01c80638da5cb5b1161004e5780638da5cb5b146101cd578063941b055b1461022457806395a0f9c714610269578063ae5310f6146102a457610070565b80634579268a1461007557806349b3709f1461011057806362b7f94e1461017c575b600080fd5b34801561008157600080fd5b506100ae6004803603602081101561009857600080fd5b81019080803590602001909291905050506102d2565b604051808673ffffffffffffffffffffffffffffffffffffffff1673ffffffffffffffffffffffffffffffffffffffff168152602001858152602001848152602001838152602001821515151581526020019550505050505060405180910390f35b34801561011c57600080fd5b5061012561034a565b6040518080602001828103825283818151815260200191508051906020019060200280838360005b8381101561016857808201518184015260208101905061014d565b505050509050019250505060405180910390f35b34801561018857600080fd5b506101cb6004803603602081101561019f57600080fd5b81019080803573ffffffffffffffffffffffffffffffffffffffff16906020019092919050505061045b565b005b3480156101d957600080fd5b506101e261059b565b604051808273ffffffffffffffffffffffffffffffffffffffff1673ffffffffffffffffffffffffffffffffffffffff16815260200191505060405180910390f35b34801561023057600080fd5b506102676004803603604081101561024757600080fd5b8101908080359060200190929190803590602001909291905050506105c0565b005b34801561027557600080fd5b506102a26004803603602081101561028c57600080fd5b8101908080359060200190929190505050610b58565b005b6102d0600480360360208110156102ba57600080fd5b8101908080359060200190929190505050610d80565b005b6000806000806000806003600088815260200190815260200160002090508060000160009054906101000a900473ffffffffffffffffffffffffffffffffffffffff1695508060010154945080600201549350806003015492508060040160009054906101000a900460ff1691505091939590929450565b606060006002805490509050600081141561039857600060405190808252806020026020018201604052801561038f5781602001602082028038833980820191505090505b50915050610458565b806040519080825280602002602001820160405280156103c75781602001602082028038833980820191505090505b50915060008090505b818110156104555760011515600282815481106103e957fe5b906000526020600020906005020160040160009054906101000a900460ff1615151415610448576002818154811061041d57fe5b90600052602060002090600502016003015483828151811061043b57fe5b6020026020010181815250505b80806001019150506103d0565b50505b90565b6000809054906101000a900473ffffffffffffffffffffffffffffffffffffffff1673ffffffffffffffffffffffffffffffffffffffff163373ffffffffffffffffffffffffffffffffffffffff161461051d576040517f08c379a00000000000000000000000000000000000000000000000000000000081526004018080602001828103825260158152602001807f596f7520617265206e6f7420746865206f776e6572000000000000000000000081525060200191505060405180910390fd5b600073ffffffffffffffffffffffffffffffffffffffff168173ffffffffffffffffffffffffffffffffffffffff16141561055757600080fd5b80600160006101000a81548173ffffffffffffffffffffffffffffffffffffffff021916908373ffffffffffffffffffffffffffffffffffffffff16021790555050565b6000809054906101000a900473ffffffffffffffffffffffffffffffffffffffff1681565b3373ffffffffffffffffffffffffffffffffffffffff16600160009054906101000a900473ffffffffffffffffffffffffffffffffffffffff1673ffffffffffffffffffffffffffffffffffffffff16636352211e836040518263ffffffff1660e01b81526004018082815260200191505060206040518083038186803b15801561064a57600080fd5b505afa15801561065e573d6000803e3d6000fd5b505050506040513d602081101561067457600080fd5b810190808051906020019092919050505073ffffffffffffffffffffffffffffffffffffffff161461070e576040517f08c379a00000000000000000000000000000000000000000000000000000000081526004018080602001828103825260168152602001807f596f75206d757374206f776e20746865204b697474790000000000000000000081525060200191505060405180910390fd5b600015156003600083815260200190815260200160002060040160009054906101000a900460ff161515146107ab576040517f08c379a00000000000000000000000000000000000000000000000000000000081526004018080602001828103825260118152602001807f43616e6e6f742073656c6c20747769636500000000000000000000000000000081525060200191505060405180910390fd5b600160009054906101000a900473ffffffffffffffffffffffffffffffffffffffff1673ffffffffffffffffffffffffffffffffffffffff1663e985e9c533306040518363ffffffff1660e01b8152600401808373ffffffffffffffffffffffffffffffffffffffff1673ffffffffffffffffffffffffffffffffffffffff1681526020018273ffffffffffffffffffffffffffffffffffffffff1673ffffffffffffffffffffffffffffffffffffffff1681526020019250505060206040518083038186803b15801561087e57600080fd5b505afa158015610892573d6000803e3d6000fd5b505050506040513d60208110156108a857600080fd5b810190808051906020019092919050505061090e576040517f08c379a00000000000000000000000000000000000000000000000000000000081526004018080602001828103825260288152602001806112186028913960400191505060405180910390fd5b6109166111d0565b6040518060a001604052803373ffffffffffffffffffffffffffffffffffffffff16815260200184815260200160028054905081526020018381526020016001151581525090506002819080600181540180825580915050906001820390600052602060002090600502016000909192909190915060008201518160000160006101000a81548173ffffffffffffffffffffffffffffffffffffffff021916908373ffffffffffffffffffffffffffffffffffffffff16021790555060208201518160010155604082015181600201556060820151816003015560808201518160040160006101000a81548160ff021916908315150217905550505050806003600084815260200190815260200160002060008201518160000160006101000a81548173ffffffffffffffffffffffffffffffffffffffff021916908373ffffffffffffffffffffffffffffffffffffffff16021790555060208201518160010155604082015181600201556060820151816003015560808201518160040160006101000a81548160ff0219169083151502179055509050507fd99e4fad9ad6313b1feb588fa8e605e3a9873172f2024330c35dd2b4041a4386338360405180806020018473ffffffffffffffffffffffffffffffffffffffff1673ffffffffffffffffffffffffffffffffffffffff1681526020018381526020018281038252600c8152602001807f437265617465204f666665720000000000000000000000000000000000000000815250602001935050505060405180910390a1505050565b60006003600083815260200190815260200160002090503373ffffffffffffffffffffffffffffffffffffffff168160000160009054906101000a900473ffffffffffffffffffffffffffffffffffffffff1673ffffffffffffffffffffffffffffffffffffffff1614610c34576040517f08c379a00000000000000000000000000000000000000000000000000000000081526004018080602001828103825260178152602001807f596f7520646f6e2774206f776e20746865204b6974747900000000000000000081525060200191505060405180910390fd5b60036000838152602001908152602001600020600080820160006101000a81549073ffffffffffffffffffffffffffffffffffffffff02191690556001820160009055600282016000905560038201600090556004820160006101000a81549060ff0219169055505060006002826002015481548110610cb057fe5b906000526020600020906005020160040160006101000a81548160ff0219169083151502179055507fd99e4fad9ad6313b1feb588fa8e605e3a9873172f2024330c35dd2b4041a4386338360405180806020018473ffffffffffffffffffffffffffffffffffffffff1673ffffffffffffffffffffffffffffffffffffffff1681526020018381526020018281038252600c8152602001807f52656d6f7665204f666665720000000000000000000000000000000000000000815250602001935050505060405180910390a15050565b610d886111d0565b600360008381526020019081526020016000206040518060a00160405290816000820160009054906101000a900473ffffffffffffffffffffffffffffffffffffffff1673ffffffffffffffffffffffffffffffffffffffff1673ffffffffffffffffffffffffffffffffffffffff1681526020016001820154815260200160028201548152602001600382015481526020016004820160009054906101000a900460ff161515151581525050905080602001513414610eb0576040517f08c379a000000000000000000000000000000000000000000000000000000000815260040180806020018281038252601b8152602001807f56616c75652073656e74206d75737420657175616c207072696365000000000081525060200191505060405180910390fd5b600115158160800151151514610f2e576040517f08c379a00000000000000000000000000000000000000000000000000000000081526004018080602001828103825260148152602001807f4f66666572206d7573742062652061637469766500000000000000000000000081525060200191505060405180910390fd5b60036000838152602001908152602001600020600080820160006101000a81549073ffffffffffffffffffffffffffffffffffffffff02191690556001820160009055600282016000905560038201600090556004820160006101000a81549060ff0219169055505060006002826040015181548110610faa57fe5b906000526020600020906005020160040160006101000a81548160ff02191690831515021790555060008160200151111561102f57806000015173ffffffffffffffffffffffffffffffffffffffff166108fc82602001519081150290604051600060405180830381858888f1935050505015801561102d573d6000803e3d6000fd5b505b600160009054906101000a900473ffffffffffffffffffffffffffffffffffffffff1673ffffffffffffffffffffffffffffffffffffffff166323b872dd826000015133856040518463ffffffff1660e01b8152600401808473ffffffffffffffffffffffffffffffffffffffff1673ffffffffffffffffffffffffffffffffffffffff1681526020018373ffffffffffffffffffffffffffffffffffffffff1673ffffffffffffffffffffffffffffffffffffffff1681526020018281526020019350505050600060405180830381600087803b15801561111057600080fd5b505af1158015611124573d6000803e3d6000fd5b505050507fd99e4fad9ad6313b1feb588fa8e605e3a9873172f2024330c35dd2b4041a4386338360405180806020018473ffffffffffffffffffffffffffffffffffffffff1673ffffffffffffffffffffffffffffffffffffffff168152602001838152602001828103825260038152602001807f4275790000000000000000000000000000000000000000000000000000000000815250602001935050505060405180910390a15050565b6040518060a00160405280600073ffffffffffffffffffffffffffffffffffffffff168152602001600081526020016000815260200160008152602001600015158152509056fe4d61726b6574706c616365206e6565647320746f20626520617070726f76656420746f2073656c6ca265627a7a72315820353a1d497f6ae0e443a321d7f0d2070962f83bfff73283419590bebb79da440864736f6c63430005100032",
  "source": "pragma solidity ^0.5.0;\r\n\r\nimport \"./IKittyMarketplace.sol\";\r\nimport \"./Ownable.sol\";\r\n\r\n/*\r\n * Market place to trade kitties (should **in theory** be used for any ERC721 token)\r\n * It needs an existing Kitty contract to interact with\r\n * Note: it does not inherit from the kitty contracts\r\n * Note: The contract needs to be an operator for everyone who is selling through this contract.\r\n */\r\ncontract KittyMarketPlace is IKittyMarketPlace, Ownable{\r\n\r\n    Kittycontract private _kittyContract;\r\n\r\n    struct Offer {\r\n        address payable seller;\r\n        uint256 price;\r\n        uint256 index;\r\n        uint256 tokenId;\r\n        bool active;\r\n    }\r\n\r\n    //array is used so that we can return list of offers to frontend.. (we cant do that with a mapping)\r\n    Offer[] offers;\r\n\r\n    mapping(uint256 => Offer) tokenIdToOffer;\r\n\r\n\r\n\r\n    constructor(address _kittyContractAddress) public{\r\n        owner = msg.sender;\r\n        setKittyContract(_kittyContractAddress);\r\n        \r\n    }\r\n\r\n    /**\r\n    * Set the current KittyContract address and initialize the instance of Kittycontract.\r\n    * Requirement: Only the contract owner can call.\r\n     */\r\n    function setKittyContract(address _kittyContractAddress) public onlyOwner{\r\n        require(_kittyContractAddress != address(0));\r\n        _kittyContract = Kittycontract(_kittyContractAddress);\r\n    }\r\n\r\n    /**\r\n    * Get the details about a offer for _tokenId. Throws an error if there is no active offer for _tokenId.\r\n     */\r\n    function getOffer(uint256 _tokenId) external view returns ( address seller, uint256 price, uint256 index, uint256 tokenId, bool active){\r\n        Offer storage offer = tokenIdToOffer[_tokenId];\r\n        \r\n        \r\n\r\n        seller = offer.seller;\r\n        price = offer.price;\r\n        index = offer.index;\r\n        tokenId = offer.tokenId;\r\n        active = offer.active;\r\n    }\r\n\r\n    /**\r\n    * Get all tokenId's that are currently for sale. Returns an empty array if none exist.\r\n     */\r\n    function getAllTokenOnSale() external view  returns(uint256[] memory listOfOffers){\r\n        uint256 totalOffers = offers.length;\r\n\r\n        if(totalOffers == 0){\r\n            return new uint256[](0); //return zero length array\r\n        }else{\r\n            listOfOffers = new  uint256[](totalOffers);\r\n            uint256 offerId;\r\n\r\n            for(offerId = 0; offerId < totalOffers; offerId ++){\r\n                if(offers[offerId].active == true){\r\n                    listOfOffers[offerId] = offers[offerId].tokenId;    \r\n                }\r\n                \r\n            }  \r\n            \r\n\r\n        }\r\n        \r\n    }\r\n\r\n    /**\r\n    * Creates a new offer for _tokenId for the price _price.\r\n    * Emits the MarketTransaction event with txType \"Create offer\"\r\n    * Requirement: Only the owner of _tokenId can create an offer.\r\n    * Requirement: There can only be one active offer for a token at a time.\r\n    * Requirement: Marketplace contract (this) needs to be an approved operator when the offer is created.\r\n     */\r\n    function setOffer(uint256 _price, uint256 _tokenId) external{\r\n        require(_kittyContract.ownerOf(_tokenId) == msg.sender, \"You must own the Kitty\" );\r\n\r\n        require(tokenIdToOffer[_tokenId].active == false, \"Cannot sell twice\"); \r\n        require(_kittyContract.isApprovedForAll( msg.sender, address(this)), \"Marketplace needs to be approved to sell\");\r\n\r\n\r\n        Offer memory offer = Offer({seller: msg.sender, price : _price, index : offers.length, tokenId : _tokenId, active :true});\r\n        offers.push(offer);\r\n        tokenIdToOffer[_tokenId] = offer; //TODO ask question is element in map and array a reference to the same memory ?\r\n\r\n\r\n        emit MarketTransaction(\"Create Offer\", msg.sender, _tokenId);\r\n    \r\n    }\r\n\r\n    /**\r\n    * Removes an existing offer.\r\n    * Emits the MarketTransaction event with txType \"Remove offer\"\r\n    * Requirement: Only the seller of _tokenId can remove an offer.\r\n     */\r\n    function removeOffer(uint256 _tokenId) external{\r\n        \r\n        Offer storage offer = tokenIdToOffer[_tokenId];\r\n        require(offer.seller == msg.sender, \"You don't own the Kitty\" );\r\n\r\n    \r\n        //remove from tokenIdToOffer\r\n        delete tokenIdToOffer[_tokenId];\r\n        //mark element in array as inactive\r\n        offers[offer.index].active = false; \r\n\r\n        emit MarketTransaction(\"Remove Offer\", msg.sender, _tokenId);\r\n    }\r\n\r\n    /**\r\n    * Executes the purchase of _tokenId.\r\n    * Sends the funds to the seller and transfers the token using transferFrom in Kittycontract.\r\n    * Emits the MarketTransaction event with txType \"Buy\".\r\n    * Requirement: The msg.value needs to equal the price of _tokenId\r\n    * Requirement: There must be an active offer for _tokenId\r\n     */\r\n    function buyKitty(uint256 _tokenId) external payable{\r\n        Offer memory offer = tokenIdToOffer[_tokenId];\r\n\r\n        //checks\r\n        require(msg.value == offer.price, \"Value sent must equal price\" );\r\n        require(offer.active == true, \"Offer must be active\"); // TODO why do we not check the active from the array element\r\n\r\n        //effect - this prevents rentrancy attacks\r\n        delete tokenIdToOffer[_tokenId]; // TODO so delete really just removes the offer from the mapping but leave the offer var intact ?\r\n        offers[offer.index].active = false; // we dont want to delete from array else we screw up indexes\r\n        \r\n\r\n        //interaction\r\n        //TODO make pull instead of push - will save gas!\r\n        if(offer.price > 0){\r\n            offer.seller.transfer(offer.price);\r\n        }\r\n\r\n        _kittyContract.transferFrom(offer.seller, msg.sender, _tokenId);\r\n\r\n        \r\n        emit MarketTransaction(\"Buy\", msg.sender, _tokenId);\r\n    }\r\n}\r\n",
  "sourcePath": "/Users/Emmett/ivanontech/academy-kitties-template/contracts/KittyMarketplace.sol",
  "compiler": {
    "name": "solc",
    "version": "0.5.16+commit.9c3226ce.Emscripten.clang"
  },
  "schemaVersion": "3.4.3",
  "updatedAt": "2021-10-07T16:15:18.620Z",
  "networkType": "ethereum",
  "devdoc": {
    "methods": {}
  },
  "userdoc": {
    "methods": {
      "buyKitty(uint256)": {
        "notice": "Executes the purchase of _tokenId. Sends the funds to the seller and transfers the token using transferFrom in Kittycontract. Emits the MarketTransaction event with txType \"Buy\". Requirement: The msg.value needs to equal the price of _tokenId Requirement: There must be an active offer for _tokenId"
      },
      "getAllTokenOnSale()": {
        "notice": "Get all tokenId's that are currently for sale. Returns an empty array if none exist."
      },
      "getOffer(uint256)": {
        "notice": "Get the details about a offer for _tokenId. Throws an error if there is no active offer for _tokenId."
      },
      "removeOffer(uint256)": {
        "notice": "Removes an existing offer. Emits the MarketTransaction event with txType \"Remove offer\" Requirement: Only the seller of _tokenId can remove an offer."
      },
      "setKittyContract(address)": {
        "notice": "Set the current KittyContract address and initialize the instance of Kittycontract. Requirement: Only the contract owner can call."
      },
      "setOffer(uint256,uint256)": {
        "notice": "Creates a new offer for _tokenId for the price _price. Emits the MarketTransaction event with txType \"Create offer\" Requirement: Only the owner of _tokenId can create an offer. Requirement: There can only be one active offer for a token at a time. Requirement: Marketplace contract (this) needs to be an approved operator when the offer is created."
      }
    }
  }
}